:100000000C9462000C948A000C948A000C948A0070
:100010000C948A000C948A000C948A000C9442037D
:100020000C948A000C948A000C948A000C94670348
:100030000C948A000C948A000C948A000C948A0018
:100040000C94A0020C948A000C9410030C94EA0205
:100050000C948A000C948A000C948A000C948A00F8
:100060000C948A000C948A00000000080002010031
:100070000003040700000000000000000000000072
:10008000240027002A000000000023002600290089
:1000900000000000250028002B00040404040404D0
:1000A0000404020202020202030303030303010227
:1000B00004081020408001020408102001020408F6
:1000C0001020230411241FBECFEFD8E0DEBFCDBF28
:1000D00011E0A0E0B1E0EEE9FEE002C005900D9273
:1000E000A631B107D9F721E0A6E1B1E001C01D9228
:1000F000AD3FB207E1F710E0C2E6D0E004C02197BF
:10010000FE010E944707C136D107C9F70E94BD040E
:100110000C944D070C9400008F929F92AF92BF9267
:10012000FF920F931F93CF93DF93F090FA012BE090
:100130002F1508F44CC02091FC0108E512E0021BC9
:10014000110927FD1395000F111F000F111F20919A
:10015000FB01C8E8D0E0C21BD10927FDD395CC0F25
:10016000DD1FCC0FDD1F4E010D2E000CAA08BB08B1
:100170009801012E000C440B550B281939094A0926
:100180005B09DC010E94020724EB30E040E050E014
:100190000E94D806820E931EA41EB51E8C169D06C4
:1001A0002CF0E801801691060CF4E4012297CC0FA4
:1001B000DD1F2FB7F8948F2D90E0FC01EE0FFF1F8D
:1001C000E80FF91FED53FE4FD283C1832FBFDF919C
:1001D000CF911F910F91FF90BF90AF909F908F9004
:1001E000089590E0FC01E859FF4F2491FC01E2558D
:1001F000FF4F3491FC01E656FF4FE491EE23C9F026
:10020000222339F0233001F1A8F4213019F12230F2
:1002100029F1F0E0EE0FFF1FE057FF4FA591B491D9
:100220008FB7F894EC91611126C030953E233C9332
:100230008FBF08952730A9F02830C9F0243049F73E
:10024000809180008F7D03C0809180008F778093A4
:100250008000DFCF84B58F7784BDDBCF84B58F7D01
:10026000FBCF8091B0008F778093B000D2CF809188
:10027000B0008F7DF9CF3E2BDACFCF93DF9390E0A4
:10028000FC01E255FF4F249186569F4FFC0184915B
:100290008823D1F090E0880F991FFC01E458FF4FAC
:1002A000A591B491FC01E057FF4FC591D491611124
:1002B0000EC09FB7F8948C91E22FE0958E238C931B
:1002C0002881E223E8839FBFDF91CF9108958FB704
:1002D000F894EC91E22BEC938FBFF6CF3FB7F894F4
:1002E0008091220190912301A0912401B0912501D8
:1002F00026B5A89B05C02F3F19F00196A11DB11D81
:100300003FBFBA2FA92F982F8827BC01CD01620FBC
:10031000711D811D911D42E0660F771F881F991F77
:100320004A95D1F70895AF92BF92CF92DF92EF92A4
:10033000FF920F931F93CF93DF936C017B018B018F
:10034000040F151FEB015E01AE18BF08C017D107DF
:1003500059F06991D601ED91FC910190F081E02D69
:10036000C6010995892B79F7C501DF91CF911F91BE
:100370000F91FF90EF90DF90CF90BF90AF900895D6
:10038000FC01538D448D252F30E0842F90E0821B9B
:10039000930B541710F0CF96089501970895FC0120
:1003A000918D828D981761F0A28DAE0FBF2FB11D78
:1003B0005D968C91928D9F5F9F73928F90E00895D0
:1003C0008FEF9FEF0895FC01918D828D981731F08A
:1003D000828DE80FF11D858D90E008958FEF9FEFDE
:1003E0000895FC01918D228D892F90E0805C9F4FB4
:1003F000821B91098F739927089586E291E00E94EC
:10040000F10121E0892B09F420E0822F089580E09A
:1004100090E0892B29F00E94FD0181110C940000CD
:100420000895FC01A48DA80FB92FB11DA35ABF4F89
:100430002C91848D90E001968F739927848FA689E3
:10044000B7892C93A089B1898C91837080648C9337
:10045000938D848D981306C00288F389E02D8081E6
:100460008F7D80830895EF92FF920F931F93CF9318
:10047000DF93EC0181E0888F9B8D8C8D98131AC0DF
:10048000E889F989808185FF15C09FB7F894EE89C6
:10049000FF896083E889F989808183708064808323
:1004A0009FBF81E090E0DF91CF911F910F91FF906E
:1004B000EF900895F62E0B8D10E00F5F1F4F0F7316
:1004C0001127E02E8C8D8E110CC00FB607FCFACFD1
:1004D000E889F989808185FFF5CFCE010E9411025C
:1004E000F1CFEB8DEC0FFD2FF11DE35AFF4FF082A2
:1004F0009FB7F8940B8FEA89FB8980818062CFCF08
:10050000CF93DF93EC01888D8823B9F0AA89BB894A
:10051000E889F9898C9185FD03C0808186FD0DC035
:100520000FB607FCF7CF8C9185FFF2CF808185FF56
:10053000EDCFCE010E941102E9CFDF91CF91089556
:100540001F920F920FB60F9211242F933F938F9308
:100550009F93AF93BF9380911E0190911F01A09133
:100560002001B091210130911D0123E0230F2D378F
:1005700058F50196A11DB11D20931D0180931E0108
:1005800090931F01A0932001B0932101809122013B
:1005900090912301A0912401B09125010196A11D04
:1005A000B11D8093220190932301A0932401B09365
:1005B0002501BF91AF919F918F913F912F910F9006
:1005C0000FBE0F901F90189526E8230F0296A11DCD
:1005D000B11DD2CF1F920F920FB60F9211242F93FD
:1005E0003F934F935F936F937F938F939F93AF93BB
:1005F000BF93EF93FF9386E291E00E941102FF9177
:10060000EF91BF91AF919F918F917F916F915F918A
:100610004F913F912F910F900FBE0F901F90189503
:100620001F920F920FB60F9211242F938F939F93C7
:10063000EF93FF93E0913601F09137018081E091D3
:100640003C01F0913D0182FD1BC0908180913F01F2
:100650008F5F8F7320914001821741F0E0913F013D
:10066000F0E0EA5DFE4F958F80933F01FF91EF919F
:100670009F918F912F910F900FBE0F901F90189503
:100680008081F4CF1F920F920FB60F9211242F93F7
:100690003F934F935F936F937F938F939F93AF930A
:1006A000BF93EF93FF93F0E0E0E00995FF91EF91A6
:1006B000BF91AF919F918F917F916F915F914F917A
:1006C0003F912F910F900FBE0F901F9018951F9282
:1006D0000F920FB60F9211242F933F934F935F9376
:1006E0006F937F938F939F93AF93BF93CF93DF933A
:1006F000EF93FF9380911A01C091E701D0E087FF4B
:1007000024C0109285001092840080911A018F5F9E
:1007100080931A0180911A01082E000C990B8C17F6
:100720009D0724F480911A018C30C4F180918400DB
:1007300090918500049680349C4908F47AC0809199
:10074000840090918500049676C080911A01082E4D
:10075000000C990B8C179D07C4F6E0911A018E2F9F
:10076000EE0F990BFC01EE0FFF1FE80FF91FED5381
:10077000FE4F808186FFC9CFE0911A018E2FEE0FC8
:10078000990BFC01EE0FFF1FE80FF91FED53FE4F11
:10079000808160E08F730E94F100B7CF20918400C8
:1007A00030918500E0911A018E2FEE0F990BFC011C
:1007B000EE0FFF1FE80FF91FED53FE4F818192816D
:1007C000820F931F9093890080938800E0911A0113
:1007D0008E2FEE0F990BFC01EE0FFF1FE80FF91F94
:1007E000ED53FE4F808186FF11C0E0911A018E2FDC
:1007F000EE0F990BFC01EE0FFF1FE80FF91FED53F1
:10080000FE4F808161E08F730E94F100FF91EF91B4
:10081000DF91CF91BF91AF919F918F917F916F9118
:100820005F914F913F912F910F900FBE0F901F90AE
:10083000189580E49CE990938900809388008FEF5D
:1008400080931A01E3CF109229011092280188EEBB
:1008500093E0A0E0B0E080932A0190932B01A09355
:100860002C01B0932D0184E091E0909327018093B7
:10087000260185EC90E0909333018093320184EC63
:1008800090E0909335018093340180EC90E0909358
:1008900037018093360181EC90E090933901809389
:1008A000380182EC90E090933B0180933A0186EC12
:1008B00090E090933D0180933C0110923F01109293
:1008C000400110924101109242018091E7018C3069
:1008D00008F04FC091E0980F9093E7018093FA01E0
:1008E00090E0FC01EE0FFF1FE80FF91FED53FE4FE4
:1008F00088EB9BE092838183E6EBF0E0E491E09368
:10090000EC01E5EBF0E0E491E093ED0182EA90E0A8
:10091000FC012491E22FF0E0EE0FFF1FE057FF4FA4
:10092000259134913093EF012093EE01E1EAF0E05C
:10093000E491F0E0EE0FFF1FEA57FF4F259134914D
:100940003093F1012093F001FC018491E82FF0E055
:10095000EE0FFF1FE458FF4F859194919093F301A0
:100960008093F20181EC9CE29093F5018093F40175
:1009700008958FEF8093FA01BFCFCF93DF93CDB768
:10098000DEB7A1970FB6F894DEBF0FBECDBF789447
:1009900084B5826084BD84B5816084BD85B5826084
:1009A00085BD85B5816085BD80916E008160809335
:1009B0006E0010928100809181008260809381009E
:1009C00080918100816080938100809180008160AE
:1009D000809380008091B10084608093B100809109
:1009E000B00081608093B00080917A008460809331
:1009F0007A0080917A00826080937A0080917A00F8
:100A0000816080937A0080917A00806880937A0078
:100A10001092C10061E088E00E943D0160E087E043
:100A20000E943D01E0913601F091370182E0808320
:100A3000E0913201F09133011082E0913401F091A4
:100A400035018FEC808310923E01E0913A01F091E4
:100A50003B0186E08083E0913801F091390180818B
:100A600080618083E0913801F09139018081886054
:100A70008083E0913801F091390180818068808322
:100A8000E0913801F091390180818F7D80838091E0
:100A9000FA018C3008F051C061E089E00E943D010C
:100AA0008091FA01282F30E0F901EE0FFF1FE20FCD
:100AB000F31FED53FE4F9081907C996090831092CC
:100AC000FB011092FC012CE0622F0E943B07829FE9
:100AD000B001112430E020E0AB01420F531FFA01B6
:100AE000EE0FFF1FE40FF51FED53FE4F908196FDB3
:100AF00016C02F5F3F4F2C30310571F781110FC0A9
:100B00001092800082E08093810010928500109204
:100B10008400B19A80916F00826080936F00E091B1
:100B2000FA018E2F90E0FC01EE0FFF1FE80FF91F76
:100B3000ED53FE4F8081806480839AE0492E512CD2
:100B4000612C712C20E0222E20E0322EE091F20167
:100B5000F091F30180819091EC01892B8083E091E9
:100B6000EE01F091EF0190818091EC018095892355
:100B700080838BE090E00197F1F7E091EE01F09136
:100B8000EF0180819091EC01892B808383E290E0DA
:100B90000197F1F7E091EE01F091EF0190818091E2
:100BA000EC01809589238083E091F201F091F301BB
:100BB00090818091EC01809589238083E091F00100
:100BC000F091F10180819091ED01892309F47BC0BE
:100BD00090E080E0BC0190E080E029E330E040E07C
:100BE00050E00E940A076901C90130931C0120935B
:100BF0001B01892BC1F126393105ACF52A303105AD
:100C00000CF0D3C084EB90E00E948C009601DD0CC8
:100C1000440B550B19A28E010F5D1F4FCA01B9017C
:100C2000A30192010E940A07605DF80162938F019F
:100C3000211531054105510589F7309761F0019083
:100C40000020E9F73197AF01401B510BB80186E254
:100C500091E00E94930142E050E062E171E086E29F
:100C600091E00E9493010E946E014B015C018AE0B9
:100C7000C82ED12CE12CF12C0E946E016819790943
:100C80008A099B09683E734081059105A8F3F1E04C
:100C9000CF1AD108E108F10828EE820E23E0921E57
:100CA000A11CB11CC114D104E104F10429F72114E1
:100CB000310409F44BCF0E94FD01882309F446CF8B
:100CC0000E94000043CF0E946E01AB01BC018091E5
:100CD000F4019091F501B0E0A0E08855994EAF4F36
:100CE000BF4F840F951FA61FB71F8093F6019093E7
:100CF000F701A093F801B093F901E091F001F091B0
:100D0000F10180819091ED01892381F40E946E01AF
:100D10000091F6011091F7012091F8013091F9014D
:100D2000061717072807390740F752CF0E946E01B0
:100D30002091F4013091F501620F731F811D911D07
:100D40006093F6017093F7018093F8019093F90195
:100D5000E091F001F091F10180819091ED01892302
:100D600081F00E946E010091F6011091F70120912F
:100D7000F8013091F901061717072807390740F7DE
:100D800027CF0E946E012091F4013091F501A90155
:100D9000455051092091F6013091F701FA01E21B0B
:100DA000F30BCF01860F971F15CF8FE590E02CCF67
:100DB000052E97FB1EF400940E94EF0657FD07D006
:100DC0000E940A0707FC03D04EF40C94EF065095DE
:100DD0004095309521953F4F4F4F5F4F0895909527
:100DE0008095709561957F4F8F4F9F4F08950E941A
:100DF0002C07A59F900DB49F900DA49F800D911D71
:100E000011240895B7FF0C94F7060E94F706821B81
:100E1000930B0895A1E21A2EAA1BBB1BFD010DC066
:100E2000AA1FBB1FEE1FFF1FA217B307E407F5079A
:100E300020F0A21BB30BE40BF50B661F771F881F76
:100E4000991F1A9469F760957095809590959B010C
:100E5000AC01BD01CF010895A29FB001B39FC001B5
:100E6000A39F700D811D1124911DB29F700D811DD6
:100E70001124911D0895991B79E004C0991F9617BC
:100E800008F0961B881F7A95C9F780950895EE0F94
:0E0E9000FF1F0590F491E02D0994F894FFCF18
:100E9E000000000033029301C0018002F101CF0176
:060EAE00E3010D0A000043
:00000001FF
